:020000040000FA
:100000000C9453000C947B000C947B000C947B00AC
:100010000C947B000C947B000C947B000C947B0074
:100020000C947B000C947B000C947B000C947B0064
:100030000C947B000C947B000C947B000C947B0054
:100040000C9416030C947B000C9486030C946003B0
:100050000C947B000C947B000C947B000C947B0034
:100060000C947B000C947B0000000000250028000D
:100070002B0000000000240027002A0004040404D0
:100080000404040402020202020203030303030342
:10009000010204081020408001020408102001021F
:1000A00004081020BD0411241FBECFEFD8E0DEBF2E
:1000B000CDBF11E0A0E0B1E0E0EAFEE002C00590B3
:1000C0000D92AC34B107D9F721E0ACE4B1E001C046
:1000D0001D92A23FB207E1F710E0C3E5D0E004C0F3
:1000E0002197FE010E944807C235D107C9F70E9437
:1000F000B8030C944E070C940000CF93DF9390E06C
:10010000FC01E057FF4F249184589F4FFC018491DC
:100110008823C1F090E0880F991FFC01EE58FF4F33
:10012000C591D491FC01E859FF4FA591B4919FB7B7
:10013000F8948881E22FE0958E2388838C91E823C0
:10014000EC939FBFDF91CF9108958E508064809390
:100150007C0080917A00806480937A0080917A009C
:1001600086FDFCCF809178009091790008953FB78B
:10017000F8948091510190915201A0915301B09156
:10018000540126B5A89B05C02F3F19F00196A11D6B
:10019000B11D3FBFBA2FA92F982F8827BC01CD01D1
:1001A000620F711D811D911D42E0660F771F881F30
:1001B000991F4A95D1F70895AF92BF92CF92DF92DF
:1001C000EF92FF920F931F93CF93DF936C017B010C
:1001D0008B01040F151FEB015E01AE18BF08C0179D
:1001E000D10759F06991D601ED91FC910190F08110
:1001F000E02DC6010995892B79F7C501DF91CF91D3
:100200001F910F91FF90EF90DF90CF90BF90AF9034
:100210000895FC01538D448D252F30E0842F90E00C
:10022000821B930B541710F0CF96089501970895F1
:10023000FC01918D828D981761F0A28DAE0FBF2FBA
:10024000B11D5D968C91928D9F5F9F73928F90E010
:1002500008958FEF9FEF0895FC01918D828D98177F
:1002600031F0828DE80FF11D858D90E008958FEFBC
:100270009FEF0895FC01918D228D892F90E0805C85
:100280009F4F821B91098F739927089585E591E00F
:100290000E943A0121E0892B09F420E0822F089581
:1002A00080E090E0892B29F00E94460181110C9496
:1002B00000000895FC01A48DA80FB92FB11DA35A09
:1002C000BF4F2C91848D90E001968F739927848F76
:1002D000A689B7892C93A089B1898C918370806499
:1002E0008C93938D848D981306C00288F389E02D3A
:1002F00080818F7D80830895EF92FF920F931F93EB
:10030000CF93DF93EC0181E0888F9B8D8C8D9813C8
:100310001AC0E889F989808185FF15C09FB7F894D4
:10032000EE89FF896083E889F98980818370806420
:1003300080839FBF81E090E0DF91CF911F910F916B
:10034000FF90EF900895F62E0B8D10E00F5F1F4F7A
:100350000F731127E02E8C8D8E110CC00FB607FC89
:10036000FACFE889F989808185FFF5CFCE010E9417
:100370005A01F1CFEB8DEC0FFD2FF11DE35AFF4F2A
:10038000F0829FB7F8940B8FEA89FB8980818062A5
:10039000CFCFCF93DF93EC01888D8823B9F0AA8962
:1003A000BB89E889F9898C9185FD03C0808186FD30
:1003B0000DC00FB607FCF7CF8C9185FFF2CF80817F
:1003C00085FFEDCFCE010E945A01E9CFDF91CF9199
:1003D0000895FC0101900020E9F73197AF01481B17
:1003E000590BBC0185E591E00C94DC008F929F9243
:1003F000AF92BF920F931F93CF93DF93CDB7DEB72A
:10040000A1970FB6F894DEBF0FBECDBF19A2423040
:1004100008F44AE08E010F5D1F4F842E912CB12C01
:10042000A12CA50194010E942607E62FB901CA015B
:10043000EA30F4F4E05DD801EE938D01232B242BF8
:10044000252B79F790E080E0109719F0CD010E94FC
:10045000E901A1960FB6F894DEBF0FBECDBFDF91C4
:10046000CF911F910F91BF90AF909F908F90089563
:10047000E95CE1CF4F925F926F927F928F929F9251
:10048000AF92BF92CF92DF92EF92FF920F931F93A2
:10049000CF936B017C01742EAC019B010E9421075C
:1004A000882399F082E191E0CF911F910F91FF9005
:1004B000EF90DF90CF90BF90AF909F908F907F9004
:1004C0006F905F904F900C94E90146015701E894BA
:1004D000B7F82FEF3FEF4FE75FE7C501B4010E9488
:1004E000210781110DC02FEF3FEF4FE75FE7C501F7
:1004F000B4010E94570518161CF486E191E0D4CF90
:100500002FEF3FEF4FE75FE4C701B6010E94AF0650
:1005100018161CF48AE191E0C7CF2FEF3FEF4FE7A9
:100520005FECC701B6010E94570587FDF3CF20E0BD
:1005300030E0A901C701B6010E94570510E000E0B4
:1005400087FF0AC06DE285E591E00E947C018C0185
:10055000F7FAF094F7F8F094C0E060E070E080E023
:100560009FE37C1641F020E030E040E251E40E943D
:100570005C05CF5FF6CFA70196010E94EB042B012B
:100580003C010E94CE054B015C014AE00E94F6014D
:100590007C01E00EF11ECC23C1F1C501B4010E9423
:1005A000FD059B01AC01C301B2010E94EA044B01AD
:1005B0005C016EE285E591E00E947C01E80EF91E87
:1005C000C15018F120E030E040E251E4C501B4012F
:1005D0000E94B4062B013C010E94CE054B01B12CB8
:1005E000A12C4AE0C501B4010E94F601E80EF91EF3
:1005F000C501B4010E94FD059B01AC01C301B2011C
:100600000E94EA044B015C01DBCFC701CF911F912F
:100610000F91FF90EF90DF90CF90BF90AF909F90A1
:100620008F907F906F905F904F9008951F920F92E0
:100630000FB60F9211242F933F938F939F93AF93F5
:10064000BF9380914D0190914E01A0914F01B091C7
:10065000500130914C0123E0230F2D3758F50196BE
:10066000A11DB11D20934C0180934D0190934E012B
:10067000A0934F01B093500180915101909152018C
:10068000A0915301B09154010196A11DB11D809319
:10069000510190935201A0935301B0935401BF9123
:1006A000AF919F918F913F912F910F900FBE0F901F
:1006B0001F90189526E8230F0296A11DB11DD2CFD9
:1006C0001F920F920FB60F9211242F933F934F93C7
:1006D0005F936F937F938F939F93AF93BF93EF93AA
:1006E000FF9385E591E00E945A01FF91EF91BF9140
:1006F000AF919F918F917F916F915F914F913F91BA
:100700002F910F900FBE0F901F9018951F920F9270
:100710000FB60F9211242F938F939F93EF93FF9314
:10072000E0916501F09166018081E0916B01F091AB
:100730006C0182FD1BC0908180916E018F5F8F7371
:1007400020916F01821741F0E0916E01F0E0EB5AC9
:10075000FE4F958F80936E01FF91EF919F918F9146
:100760002F910F900FBE0F901F9018958081F4CF9E
:10077000789484B5826084BD84B5816084BD85B57C
:10078000826085BD85B5816085BD80916E00816088
:1007900080936E001092810080918100826080932E
:1007A0008100809181008160809381008091800030
:1007B0008160809380008091B10084608093B1005B
:1007C0008091B00081608093B00080917A00846055
:1007D00080937A0080917A00826080937A00809181
:1007E0007A00816080937A0080917A00806880939B
:1007F0007A001092C1008EE00E947D008FE00E947E
:100800007D00E0916501F091660182E08083E091D6
:100810006101F09162011082E0916301F091640145
:1008200080E1808310926D01E0916901F0916A018D
:1008300086E08083E0916701F091680180818061AA
:100840008083E0916701F0916801808188608083F6
:10085000E0916701F0916801808180688083E09178
:100860006701F091680180818F7D8083C0E0D0E0D6
:100870008EE00E94A5007C018EE191E00E94E901DA
:10088000B701FF0C880B990B0E94FF0520E030ECAC
:100890004FE754E40E945C0520E030E04AEF52E468
:1008A0000E94B40620E030E048E451E40E94EA04EB
:1008B00042E00E943A028DE291E00E94E90180E369
:1008C00091E00E94E9018FE00E94A5007C0183E392
:1008D00091E00E94E901B701FF0C880B990B0E947F
:1008E000FF0520E030EC4FE754E40E945C0520E077
:1008F00030EC4AE553E40E94B40620E030EC45E8D1
:1009000052E40E94EA0442E00E943A0287E491E045
:100910000E94E90180E391E00E94E9010E94B70092
:100920004B015C0184E1C82ED12CE12CF12C0E94FA
:10093000B700681979098A099B09683E73408105E7
:100940009105A8F321E0C21AD108E108F10888EE68
:10095000880E83E0981EA11CB11CC114D104E104CF
:10096000F10429F7209709F483CF0E9446018823D8
:1009700009F47ECF0E9400007BCFE5E5F1E0138211
:10098000128288EE93E0A0E0B0E084839583A68392
:10099000B78384E091E09183808385EC90E0958734
:1009A000848784EC90E09787868780EC90E0918B39
:1009B000808B81EC90E0938B828B82EC90E0958B26
:1009C000848B86EC90E0978B868B118E128E138E23
:1009D000148E08955058BB27AA270E9402050C9434
:1009E00075060E94670638F00E946E0620F039F402
:1009F0009F3F19F426F40C9464060EF4E095E7FB8F
:100A00000C945E06E92F0E94860658F3BA17620717
:100A100073078407950720F079F4A6F50C94A806CF
:100A20000EF4E0950B2EBA2FA02D0B01B901900109
:100A30000C01CA01A0011124FF27591B99F0593F4D
:100A400050F4503E68F11A16F040A22F232F342F95
:100A50004427585FF3CF469537952795A795F040E3
:100A60005395C9F77EF41F16BA0B620B730B840BF8
:100A7000BAF09150A1F0FF0FBB1F661F771F881FB0
:100A8000C2F70EC0BA0F621F731F841F48F4879508
:100A900077956795B795F7959E3F08F0B0CF9395FA
:100AA000880F08F09927EE0F9795879508950E9473
:100AB0003A0608F481E008950E9470050C947506CA
:100AC0000E946E0658F00E94670640F029F45F3FCE
:100AD00029F00C945E0651110C94A9060C9464063E
:100AE0000E94860668F39923B1F3552391F3951B71
:100AF000550BBB27AA2762177307840738F09F5F3F
:100B00005F4F220F331F441FAA1FA9F335D00E2EAB
:100B10003AF0E0E832D091505040E695001CCAF718
:100B20002BD0FE2F29D0660F771F881FBB1F2617DB
:100B300037074807AB07B0E809F0BB0B802DBF01B2
:100B4000FF2793585F4F3AF09E3F510578F00C9481
:100B50005E060C94A9065F3FE4F3983ED4F38695B5
:100B600077956795B795F7959F5FC9F7880F911DA2
:100B70009695879597F90895E1E0660F771F881F8E
:100B8000BB1F621773078407BA0720F0621B730B41
:100B9000840BBA0BEE1F88F7E09508950E948E062D
:100BA00088F09F5798F0B92F9927B751B0F0E1F02E
:100BB000660F771F881F991F1AF0BA95C9F714C0DE
:100BC000B13091F00E94A806B1E008950C94A806F7
:100BD000672F782F8827B85F39F0B93FCCF3869517
:100BE00077956795B395D9F73EF490958095709574
:100BF00061957F4F8F4F9F4F0895E89409C097FBF1
:100C00003EF490958095709561957F4F8F4F9F4FE3
:100C10009923A9F0F92F96E9BB279395F695879527
:100C200077956795B795F111F8CFFAF4BB0F11F4EA
:100C300060FF1BC06F5F7F4F8F4F9F4F16C0882391
:100C400011F096E911C0772321F09EE8872F762FC7
:100C500005C0662371F096E8862F70E060E02AF008
:100C60009A95660F771F881FDAF7880F96958795F4
:100C700097F90895990F0008550FAA0BE0E8FEEFC9
:100C800016161706E807F907C0F012161306E40750
:100C9000F50798F0621B730B840B950B39F40A2649
:100CA00061F0232B242B252B21F408950A2609F427
:100CB000A140A6958FEF811D811D089597F99F672B
:100CC00080E870E060E008959FEF80EC08950024D4
:100CD0000A941616170618060906089500240A94A1
:100CE00012161306140605060895092E0394000C27
:100CF00011F4882352F0BB0F40F4BF2B11F460FFB6
:100D000004C06F5F7F4F8F4F9F4F089557FD9058DE
:100D1000440F551F59F05F3F71F04795880F97FBBF
:100D2000991F61F09F3F79F0879508951216130679
:100D30001406551FF2CF4695F1DF08C016161706A8
:100D40001806991FF1CF86957105610508940895DD
:100D5000E894BB2766277727CB0197F908950E946F
:100D60003A0608F48FEF08950E94C7060C947506A2
:100D70000E94670638F00E946E0620F0952311F05D
:100D80000C945E060C94640611240C94A9060E942F
:100D9000860670F3959FC1F3950F50E0551F629F33
:100DA000F001729FBB27F00DB11D639FAA27F00DC4
:100DB000B11DAA1F649F6627B00DA11D661F829FEB
:100DC0002227B00DA11D621F739FB00DA11D621FD0
:100DD000839FA00D611D221F749F3327A00D611DED
:100DE000231F849F600D211D822F762F6A2F1124CF
:100DF0009F5750409AF0F1F088234AF0EE0FFF1F02
:100E0000BB1F661F771F881F91505040A9F79E3F58
:100E1000510580F00C945E060C94A9065F3FE4F344
:100E2000983ED4F3869577956795B795F795E795AE
:100E30009F5FC1F7FE2B880F911D9695879597F9B7
:100E400008950E943A06880B990B0895A1E21A2E84
:100E5000AA1BBB1BFD010DC0AA1FBB1FEE1FFF1F5E
:100E6000A217B307E407F50720F0A21BB30BE40BAE
:100E7000F50B661F771F881F991F1A9469F76095F5
:100E80007095809590959B01AC01BD01CF010895AF
:100E9000EE0FFF1F0590F491E02D0994F894FFCF19
:100EA000000000007C01DC000901C9013A011801C1
:100EB0002C016E616E00696E66006F766600687563
:100EC0006D6964697479282529203A20002025005D
:100ED0000D0A0054656D7065726174757265282025
:0C0EE000274329203A200020274300006F
:107E0000112484B714BE81FFF0D085E080938100F7
:107E100082E08093C00088E18093C10086E0809377
:107E2000C20080E18093C4008EE0C9D0259A86E02C
:107E300020E33CEF91E0309385002093840096BBD3
:107E4000B09BFECF1D9AA8958150A9F7CC24DD24C4
:107E500088248394B5E0AB2EA1E19A2EF3E0BF2EE7
:107E6000A2D0813461F49FD0082FAFD0023811F036
:107E7000013811F484E001C083E08DD089C08234E0
:107E800011F484E103C0853419F485E0A6D080C0E4
:107E9000853579F488D0E82EFF2485D0082F10E0AE
:107EA000102F00270E291F29000F111F8ED06801E7
:107EB0006FC0863521F484E090D080E0DECF843638
:107EC00009F040C070D06FD0082F6DD080E0C81688
:107ED00080E7D80618F4F601B7BEE895C0E0D1E017
:107EE00062D089930C17E1F7F0E0CF16F0E7DF06D8
:107EF00018F0F601B7BEE89568D007B600FCFDCFD4
:107F0000A601A0E0B1E02C9130E011968C91119780
:107F100090E0982F8827822B932B1296FA010C0160
:107F200087BEE89511244E5F5F4FF1E0A038BF0790
:107F300051F7F601A7BEE89507B600FCFDCF97BE46
:107F4000E89526C08437B1F42ED02DD0F82E2BD052
:107F50003CD0F601EF2C8F010F5F1F4F84911BD097
:107F6000EA94F801C1F70894C11CD11CFA94CF0C13
:107F7000D11C0EC0853739F428D08EE10CD085E9AC
:107F80000AD08FE07ACF813511F488E018D01DD067
:107F900080E101D065CF982F8091C00085FFFCCF94
:107FA0009093C60008958091C00087FFFCCF809118
:107FB000C00084FD01C0A8958091C6000895E0E648
:107FC000F0E098E1908380830895EDDF803219F02E
:107FD00088E0F5DFFFCF84E1DECF1F93182FE3DFCA
:107FE0001150E9F7F2DF1F91089580E0E8DFEE27F6
:047FF000FF270994CA
:027FFE00040479
:00000001FF
